:020000040800F2
:1000000000000120C5020008CB020008CF02000852
:1000100041030008450300088D03000800000000AC
:10002000000000000000000000000000D5030008F0
:10003000D903000800000000DD0300085913000880
:10004000F1030008F1030008F1030008F1030008C0
:10005000F1030008F1030008F1030008F1030008B0
:10006000F1030008F1030008F1030008F1030008A0
:10007000F1030008F1030008F1030008F103000890
:10008000F1030008F1030008F1030008000000007C
:10009000000000000000000000000000F103000864
:1000A000F1030008F1030008F1030008F103000860
:1000B000F1030008F1030008F1030008F103000850
:1000C000F1030008F1030008F1030008F103000840
:1000D000F1030008F1030008F1030008000000002C
:1000E000F1030008F1030008F1030008000000001C
:1000F000000000000000000000000000F103000804
:1001000000000000F1030008F1030008F1030008FB
:1001100000000000000000000000000000000000DF
:10012000F1030008F1030008F1030008F1030008DF
:10013000F1030008000000000000000000000000C3
:10014000000000000000000000000000F1030008B3
:10015000F1030008F1030008F1030008F1030008AF
:10016000F1030008F1030008000000000000000097
:10017000000000000000000000000000000000007F
:1001800000000000F1030008000000000000000073
:10019000F103000800B583B000F046FE384B394A41
:1001A0001360394A1360394900E02146384B9942BF
:1001B0000BD20A684B6801F10C0488689842F4D9A4
:1001C0001168196004330432F8E72E4B1A68314B7A
:1001D0009A4200D0FEE72C4B1A682F4B9A42F9D175
:1001E000274B2E4A13602E4A13602E4B05E0002049
:1001F000106004329342FAD80B462B4A934204D241
:10020000194651F8082B5B68F4E7244B1B6813B9B7
:10021000234B1B6803B1FEE701F01CF9694601A8F6
:1002200000F094FD214C224BE41AA4100025AC42AE
:1002300014DC204C204BE41AA4100025AC4213DC43
:100240000099019801F09CF805461C4C1C4BE41ADF
:10025000A410002C0EDC284600F04AFD144B53F885
:10026000253098470135E2E7134B53F8253098477E
:100270000135E3E7013C124B53F824309847E8E797
:10028000BABADECA0000002078000020F40300089B
:100290000C04000878563412325476987C00002002
:1002A000200100200C0400081C0400081C040008A5
:1002B0001C0400081C0400081C0400081C0400089E
:1002C0001C04000808B5FFF765FF00BEFEE71EF03E
:1002D000040F0CBFEFF30880EFF309807146414A29
:1002E00010472DE9F04182B004468846124B5E6B00
:1002F0009F6B9D6A1B6B13F0020F03D00E4BDB6AE2
:10030000002B0CDB0D4800F033FDCDF800803B46A0
:1003100032462946204600F093FD00BEFEE74BF62C
:10032000AB6100F007FE0028ECD0034B4FF0004219
:10033000DA6202B0BDE8F08100ED00E0381F00088D
:1003400000BEFEE71EF0040F0CBFEFF30880EFF3D2
:1003500009807146244A10472DE9F04182B00446D5
:100360008846084B5E6B9F6B9D6A074800F000FD56
:10037000CDF800803B4632462946204600F060FD1D
:1003800000BEFEE700ED00E0481F00081EF0040F6D
:100390000CBFEFF30880EFF309807146134A104752
:1003A0002DE9F04182B004468846084B5E6B9F6B96
:1003B0009D6A074800F0DCFCCDF800803B463246E1
:1003C0002946204600F03CFD00BEFEE700ED00E0BF
:1003D000541F000800BEFEE700BEFEE700BEFEE7B9
:1003E00070470000E302000859030008A103000859
:0403F00000BEFEE766
:1003F40088BC0008000000207C00002088BC0008A5
:1004040000000010000000107C00002024010020E7
:080414000000001000000010C0
:1004200010B50446074B1868074BA3FB0030800942
:1004300000F090F8002221464FF0FF3000F044F821
:10044000002010BD0C000020D34D621008B50B4BEE
:100450001A6842F400721A601A6842F480621A60E4
:100460001A6842F480721A60032000F00FF80F201F
:10047000FFF7D6FF00F0F6FF002008BD003C024069
:10048000014B1868704700BF1801002010B50446E2
:10049000C31E042B0FD80A4AD36823F4E0631B045D
:1004A0001B0C240204F4E064234343F0BF6343F4D1
:1004B0000033D36010BDA421024800F04FFCEAE7EE
:1004C00000ED00E0681D000870B505460C461646B4
:1004D0000F2A25D80F2C28D81B4BDB68C3F3022327
:1004E000C3F10702042A28BF0422191D062921D9B5
:1004F000033B4FF0FF3101FA02F224EA02049C4070
:1005000001FA03F326EA03063443002D14DB240129
:10051000E4B205F1604505F5614585F8004370BD1D
:10052000BC210A4800F01AFCD4E7BD21074800F0BE
:1005300015FCD1E70023DCE705F00F052401E4B248
:10054000034B5C55EBE700BF00ED00E0681D0008C1
:1005500014ED00E00138B0F1807F0AD2064B5860FC
:10056000064AF02182F823100020986007221A60C2
:1005700070470120704700BF10E000E000ED00E090
:1005800010B50446042800D038B9042C0BD0094A11
:10059000136823F00403136010BD40F2B311064842
:1005A00000F0DCFBF1E7034A136843F00403136037
:1005B000F2E700BF10E000E0681D000830B583B02E
:1005C000044603680F2B29D8236813F0010F3DD090
:1005D0006368012B01D9052B25D1A34B9B6803F040
:1005E0000C03042B29D0A04B9B6803F00C03082BB1
:1005F0001ED022799D4B1A706368002B50D0FFF7F4
:100600003FFF0546984B1B6813F4003F1ED1FFF7D0
:1006100037FF401B6428F5D90320E3E1F521944816
:1006200000F09CFBD0E7FA21914800F097FBD4E75B
:100630008D4B5B6813F4800FDBD08B4B1B6813F47E
:10064000003F03D06368002B00F0C981236813F0DA
:10065000020F5DD0E368012B31D823691F2B34D8FA
:10066000814B9B6813F00C0F3AD07F4B9B6803F0D3
:100670000C03082B2FD0E368002B74D07D4B012294
:100680001A60FFF7FDFE0546774B1B6813F0020F5B
:100690005AD1FFF7F5FE401B0228F5D90320A1E14E
:1006A000FFF7EEFE0546704B1B6813F4003FCDD0FC
:1006B000FFF7E6FE401B6428F5D9032092E14FF4D2
:1006C00096716B4800F04AFBC7E740F22D1168486D
:1006D00000F044FBC4E7644B5B6813F4800FCAD19D
:1006E000614B1B6813F0020F04D0E368012B01D0AB
:1006F000012077E15C48036823F0F8032169F822C0
:1007000092FAA2F2B2FA82F201FA02F21343036001
:10071000236813F0080F50D06369012B35D8636943
:10072000002B38D0544B01221A60FFF7A9FE054672
:100730004D4B5B6F13F0020F3FD1FFF7A1FE401B43
:100740000228F5D903204DE14748036823F0F80358
:100750002169F82292FAA2F2B2FA82F201FA02F2C6
:1007600013430360D4E7434B00221A60FFF788FE6F
:1007700005463D4B1B6813F0020FC9D0FFF780FE02
:10078000401B0228F5D903202CE140F26D113848B6
:1007900000F0E4FAC3E7384B00221A60FFF770FE5E
:1007A0000546314B5B6F13F0020F06D0FFF768FE72
:1007B000401B0228F5D9032014E1236813F0040F2D
:1007C00060D0A368012B01D9052B1FD10023019311
:1007D000254B1A6C42F080521A641B6C03F0805354
:1007E0000193019B254A136843F480731360FFF75C
:1007F00047FE0546214B1B6813F4807F0CD1FFF7A1
:100800003FFE401B0228F5D90320EBE040F2971190
:10081000174800F0A3FAD9E7227A194B1A70A36897
:1008200083B1FFF72DFE05460F4B1B6F13F0020F30
:1008300028D1FFF725FE401B41F288339842F3D9B7
:100840000320CFE0FFF71CFE0546074B1B6F13F09C
:10085000020F17D0FFF714FE401B41F28833984275
:10086000F3D90320BEE000BF003802400238024046
:10087000AC1D000800004742800E47420070004057
:1008800070380240A369022B39D8A369002B00F00D
:10089000A880564A926802F00C02082A00F0A48050
:1008A000022B40F08880E36913B1B3F5800F2CD19F
:1008B000236A3F2B2FD8636A323BB3F5BF7F30D812
:1008C000A36A022B05D0042B03D0062B01D0082BE2
:1008D0002DD1E36A043B0B2B2FD8454B00221A6025
:1008E000FFF7CEFD0546414B1B6813F0007F2AD071
:1008F000FFF7C6FD401B0228F5D9032072E04FF434
:10090000E6713C4800F02AFABFE740F2D5113948B9
:1009100000F024FACCE74FF4EB71364800F01EFAF1
:10092000C9E740F2D711334800F018FAC8E74FF48E
:10093000EC71304800F012FACBE740F2D9112D48A3
:1009400000F00CFAC9E7E369226A1343616A47F6CB
:10095000C07292FAA2F2B2FA82F201FA02F21343E0
:10096000A26A5208013A4FF4403191FAA1F1B1FA6A
:1009700081F18A401343E16A4FF0706292FAA2F269
:10098000B2FA82F201FA02F21343184A5360184B8A
:1009900001221A60FFF774FD0446144B1B6813F024
:1009A000007F06D1FFF76CFD001B0228F5D903205C
:1009B00018E0002016E00E4B00221A60FFF760FDE1
:1009C00004460A4B1B6813F0007F06D0FFF758FD62
:1009D000001B0228F5D9032004E0002002E00120DA
:1009E00000E0002003B030BD0120FBE700380240EA
:1009F00060004742AC1D0008214B9B6803F00C03CC
:100A0000042B3AD0082B01D01E4870471C4B586865
:100A100000F03F005B6813F4800F1ED01A4AB2FB4F
:100A2000F0F2174B586847F6C073184093FAA3F3D7
:100A3000B3FA83F3D84000FB02F0114B5B6803F478
:100A400040334FF4403292FAA2F2B2FA82F2D3402B
:100A500001335B00B0FBF3F070470A4AB2FBF0F2DF
:100A6000074B586847F6C073184093FAA3F3B3FADC
:100A700083F3D84000FB02F0DFE70348704700BF74
:100A8000003802400024F40040787D0170B504462F
:100A90000D460368013B0E2B11D8072D15D88C4B42
:100AA0001B6803F00F03AB4215D2EBB2884A1370F8
:100AB000136803F00F03AB420DD0012070BD40F26C
:100AC0003721844800F04AF9E7E74FF40E71814876
:100AD00000F044F9E3E7236813F0020F18D0A3688D
:100AE0007BB1802B0DD0902B0BD0A02B09D0B02B3D
:100AF00007D0C02B05D0D02B03D0E02B01D0F02B9A
:100B000037D1754A936823F0F003A1680B439360D3
:100B1000236813F0010F73D06368032B2FD8636829
:100B2000012B32D09A1E012A36D96B4A126812F074
:100B3000020F00F0CA8068498A6822F0030213435A
:100B40008B60FFF79DFC06466368012B2BD0022BC0
:100B500038D0032B45D0604B9B6813F00C0F4FD05F
:100B6000FFF78EFC801B41F288339842F3D90320B3
:100B7000A4E740F24F21574800F0F0F8C1E740F2F7
:100B80005621544800F0EAF8C9E7534A126812F4B3
:100B9000003FD0D1012091E74F4A126812F0007F48
:100BA000C9D101208AE74C4B9B6803F00C03042B4E
:100BB00026D0FFF765FC801B41F288339842F2D9BA
:100BC00003207BE7444B9B6803F00C03082B17D0F2
:100BD000FFF756FC801B41F288339842F2D903207C
:100BE0006CE73D4B9B6803F00C030C2B08D0FFF720
:100BF00047FC801B41F288339842F2D903205DE71D
:100C0000334B1B6803F00F03AB4209D9EAB2304BF8
:100C10001A701B6803F00F03AB4201D001204DE7AF
:100C2000236813F0040F14D0E3685BB1B3F5805F61
:100C300008D0B3F5A05F05D0B3F5C05F02D0B3F51F
:100C4000E05F36D1244A936823F4E053E1680B4314
:100C50009360236813F0080F15D023695BB1B3F5D7
:100C6000805F08D0B3F5A05F05D0B3F5C05F02D0B8
:100C7000B3F5E05F23D1184A936823F460432169F8
:100C800043EAC1039360FFF7B7FE134B9B6803F081
:100C9000F003F02292FAA2F2B2FA82F2D3400F4AA3
:100CA000D35CD8400E4B18600F20FFF7B9FB002033
:100CB00004E74FF42D71074800F050F8C2E740F206
:100CC000BB21044800F04AF8D5E70120F6E600BF52
:100CD000003C0240AC1D0008003802409C1D00088A
:100CE0000C000020014B1868704700BF0C0000206A
:100CF000FEE7000008B5034800F052F80120FFF7B6
:100D0000F7FF00BFDC1D000808B503460C4A126857
:100D10005AB10B4A1068033323F003030344094A12
:100D2000934206D8064A136008BD054A0649116079
:100D3000EFE700F099FB0C2303604FF0FF30F3E77F
:100D40008000002000FC002024010020012303601B
:100D5000014B0B60704700BF0400002008B50A4635
:100D60000146024800F004F8FFF7C4FFF01D000838
:100D70000FB400B583B004AB53F8042B019380216A
:100D8000064800F0ABFB002803DD0146034800F0F5
:100D900047F803B05DF804EB04B07047880000200A
:100DA00010B5044600F066FB0146204600F038F816
:100DB0000121024800F034F810BD00BFB41E000845
:100DC0002DE9F04385B004460F4643560BB10E465D
:100DD0001EE0042528462146ABBE0446384605B031
:100DE000BDE8F08314F9011B04AA1A4402F8101C90
:100DF0000133AB42F6D304AA1344002203F8102CAB
:100E00004FF00408E94640464946ABBE8046761B93
:100E1000002EE3D03546102E28BF10250023E8E72A
:100E200008B5FFF7CDFF08BD08B500F093F8024AFA
:100E3000024B9A6008BD00BF0000000800ED00E012
:100E4000F8B504460D4617461E462748FFF790FFA3
:100E500021682648FFF78CFF61682548FFF788FF67
:100E6000A1682448FFF784FFE1682348FFF780FF6B
:100E700021692248FFF77CFF61692148FFF778FF6D
:100E8000A1692048FFF774FFE1691F48FFF770FF71
:100E90001E48FFF76DFF29461D48FFF769FF1D4CEF
:100EA000E16A1D48FFF764FF216B1C48FFF760FFF4
:100EB000E16B1B48FFF75CFF15F0800F0AD115F4BA
:100EC000004F0CD11748FFF753FF06991648FFF75C
:100ED0004FFFF8BD39461548FFF74AFFEFE73146A7
:100EE0001348FFF745FFEDE71C1E00082C1E000805
:100EF0003C1E00084C1E00085C1E00086C1E00080A
:100F00007C1E00088C1E00089C1E0008AC1E0008F9
:100F1000B81E000800ED00E0C81E0008D81E00083A
:100F2000E81E0008181F0008201F0008F81E00080F
:100F3000081F000883691A888A4201D00020704780
:100F40000268033A012A03D8023383610120704703
:100F5000002070470C4B1A6842F001021A60002111
:100F600099601A6822F0847222F480321A60074A6B
:100F70005A601A6822F480221A60D960044B4FF03C
:100F800000629A60704700BF0038024010300024B1
:100F900000ED00E0224B9B6803F00C03042B14D0FF
:100FA000082B16D01BB11F4B1F4A1A6002E01D4BC5
:100FB0001D4A1A601A4B9B68C3F303131B4AD15C8A
:100FC000184A1368CB4013607047164B184A1A60D2
:100FD000F0E7134B5A685B6803F03F0312F4800F8D
:100FE00013D0134AB2FBF3F20D4B5B68C3F38813C3
:100FF00003FB02F30A4A5268C2F301420132520073
:10100000B3FBF2F3074A1360D4E7074AB2FBF3F2EB
:10101000034B5B68C3F3881303FB02F3EAE700BFEB
:10102000003802400C0000200024F400641F000877
:1010300040787D0110B5002410E0012221460020F7
:1010400000F018F800222146104600F04BF800226C
:101050002146104600F08CF80134E4B2072CECD99C
:1010600010BD08B5034608220021084600F0B8F874
:1010700008BD000010B4012812D018B102281DD0FC
:1010800010BC7047144B1868490003248C4020EAB8
:1010900004001860186802FA01F101431960EFE7D3
:1010A0000E4B1868490003248C4020EA04001860A5
:1010B000186802FA01F101431960E1E7084B18686A
:1010C000490003248C4020EA04001860186802FAE2
:1010D00001F101431960D3E700000240000402401F
:1010E00000080240012817D010B1022827D070470D
:1010F000012A0AD0002A2DD11A484368012202FA97
:1011000001F123EA0101416070471648436802FA81
:1011100001F1194341607047012A09D0D2B9124840
:101120004368012202FA01F123EA0101416070479C
:101130000D48436802FA01F1194341607047012AE2
:1011400009D03AB909484368012202FA01F123EAB9
:101150000101416070470548436802FA01F11943F3
:101160004160704700000240000402400008024055
:1011700010B4012812D018B102281DD010BC70473D
:10118000144B9868490003248C4020EA04009860BE
:10119000986802FA01F101439960EFE70E4B9868F5
:1011A000490003248C4020EA04009860986802FA01
:1011B00001F101439960E1E7084B98684900032475
:1011C0008C4020EA04009860986802FA01F101431B
:1011D0009960D3E70000024000040240000802408A
:1011E00030B4012815D018B1022823D030BC704784
:1011F000194C6569C2F120024FF0FF3020FA02F26B
:101200008A4025EA0202626162698B40134363618E
:10121000ECE7124C6569C2F120024FF0FF3020FA72
:1012200002F28A4025EA0202626162698B4013433E
:101230006361DBE70A4C6569C2F120024FF0FF30C1
:1012400020FA02F28A4025EA0202626162698B405A
:1012500013436361CAE700BF00000240000402407C
:1012600000080240094B1A6842F001021A609A68AD
:1012700022F003029A609A689A609A6842F08002AB
:101280009A609A689A609A689A607047003802403B
:10129000032822D8DFE800F0020A121A0F48036B75
:1012A000012202FA01F11943016370470B48436BB5
:1012B000012202FA01F11943416370470748036CA8
:1012C000012202FA01F11943016470470348436C9B
:1012D000012202FA01F119434164704700380240CB
:1012E000064B00221A601A681A605A685A601A6817
:1012F0001A601A6842F001021A60704710E000E0BC
:10130000024A136823F002031360704710E000E004
:1013100040F20112A2FB0032831A02EB5302D20DFB
:10132000C2EB0263C31A0B494B600A4B1B6813F4F0
:10133000803FFAD009E0074B6FF07F415960054BC1
:101340001B6813F4803FFAD0013A002AF3D1014B15
:101350009A60704710E000E008B5064B1B7833B187
:10136000054B1B6803B19847044B1B6808BDFFF78A
:10137000C7FFF5E70C0100200801002010E000E0A5
:1013800010B5FFF76FFF00210846FFF781FFFFF759
:10139000A7FFFFF74FFE0BE0064B185DFFF761FE5E
:1013A0007D20FFF7B5FF0134034B1B68A342F3D840
:1013B0000024F9E7741F00081000002070B594B0F5
:1013C00000240194204B1A6C42F080521A641B6C6A
:1013D00003F080530193019B02941C4B1A6842F462
:1013E00040421A601B6803F440430293029B0123AE
:1013F000089309934FF480030F93192310934FF42C
:10140000A8731193042612960723139302250E95B1
:1014100008A8FFF7D3F80F230393049505944FF41E
:10142000805306930794294603A8FFF72FFBFFF785
:1014300059FC074BA3FB00308009FFF78BF83046BF
:10144000FFF79EF814B070BD0038024000700040F5
:10145000D34D621008B5FEF7F9FFFFF7AFFFFFF7B6
:1014600099FD08BD70470000014B1868704700BF28
:1014700014000020034613F8012B002AFBD1181A90
:101480000138704730B5141E05469BB0184605DA82
:101490008B232B604FF0FF301BB030BD4FF4027335
:1014A000ADF80C3014BF04F1FF33234602930593CB
:1014B0004FF6FF7300910491ADF80E3002461E9B6B
:1014C0006946284600F072F8431CBCBF8B232B6092
:1014D000002CE1D0009B00221A70DDE707B50093D5
:1014E00013460A46014603480068FFF7CBFF03B0E6
:1014F0005DF804FB140000202DE9F0478E689E4241
:1015000082460C469046994637D88A8912F4906FE5
:1015100031D0256809696F1A6569022305EB450515
:1015200095FBF3F509F101033B449D4238BF1D468D
:10153000530530D5294600F07DFB064650B90C23F3
:10154000CAF80030A38943F04003A3814FF0FF3075
:10155000BDE8F0873A46216900F0FAFAA38923F43E
:10156000906343F08003A381266165613E44ED1BD7
:101570002660A5604E464E4500D94E46324641464D
:10158000206800F0F0FAA3689B1BA36023681E4448
:1015900026600020DCE72A4600F0A6FB064600286D
:1015A000E2D12169504600F0F7FAC8E72DE9F04F83
:1015B0009DB0804603938B891D060C4616460FD5B9
:1015C0000B696BB9402100F035FB2060206128B920
:1015D0000C23C8F800304FF0FF30C7E040236361B0
:1015E0000023099320238DF8293030238DF82A30E9
:1015F0004FF0010B37463D4615F8013B0BB1252B4B
:101600003ED1B7EB060A0BD0534632462146404640
:10161000FFF772FF013000F0A480099B5344099347
:101620003B78002B00F09D8000234FF0FF32CDE986
:101630000523049307938DF853301A932F46052200
:1016400017F8011B4F4800F033FA049BD0B9D906B4
:1016500044BF20228DF853201A0744BF2B228DF857
:1016600053202A782A2A15D0079A2F4600200A25C7
:10167000394611F8013B303B092B4DD9B8B10FE089
:101680002F46B8E73F4A801A0BFA00F0184304903F
:101690003D46D3E7039A111D12680391002A01DB2E
:1016A000079204E0524243F00203079204933B780E
:1016B0002E2B0CD17B782A2B33D1039B1A1D1B6850
:1016C0000392002BB8BF4FF0FF33023705932E4D26
:1016D00039780322284600F0EBF938B14023401B4B
:1016E00003FA00F0049B0343013704933978274839
:1016F0008DF8281006227E1C00F0DAF9002838D078
:10170000234B13BB039B073323F0070308330393D7
:10171000099B4B4409936DE705FB023201200F46FC
:10172000A6E700230137059319460A25384610F825
:10173000012B303A092A03D9002BC8D00591C6E7FE
:1017400005FB012101230746F0E703AB0093224686
:10175000104B04A94046AFF30080B0F1FF3F814633
:10176000D6D1A3895B063FF536AF09981DB0BDE819
:10177000F08F03AB00932246064B04A9404600F0CD
:1017800081F8EAE752BC000858BC00085CBC0008BD
:1017900000000000F91400082DE9F04791461F46AB
:1017A0008A680B69DDF820809342B8BF1346C9F8F8
:1017B000003091F8432006460C4612B10133C9F8B7
:1017C00000302368990642BFD9F800300233C9F8C7
:1017D0000030256815F0060507D104F1190AE36801
:1017E000D9F800209B1AAB4228DC94F843302268D9
:1017F000003318BF012392062DD404F14302394669
:101800003046C047013020D02368E568D9F8002071
:1018100003F00603042B08BFAD1AA36822690CBFAE
:1018200025EAE57500259342C4BF9B1AED184FF0D9
:1018300000091A344D451AD1002008E00123524610
:1018400039463046C047013003D14FF0FF30BDE884
:10185000F0870135C3E7E1185A1C302081F84300B6
:10186000224494F8451082F843100233C5E701235F
:10187000224639463046C0470130E6D009F1010919
:10188000D8E700002DE9F04301F1430C0C46097E36
:1018900085B06E291746064698460C9A00F0B3802C
:1018A00022D8632936D00AD8002900F0B9805829F7
:1018B00000F0838004F1420584F8421032E064298C
:1018C00001D06929F6D120681368050603F10401E7
:1018D0002AD51B681160002B03DA2D225B4284F8A5
:1018E00043206F480A2239E0732900F09D8008D810
:1018F0006F2920D07029DDD1236843F020032360B5
:1019000003E0752917D07829D4D1782384F845309D
:10191000644855E01368191D1B68116004F1420505
:1019200084F8423001238CE01B68116010F0400FF6
:1019300018BF1BB2CFE713682568181D1060280672
:1019400001D51B6802E06806FBD51B8854486F2947
:1019500014BF0A220822002184F843106568A5609C
:10196000002DC0F29580216821F004012160002B38
:101970003DD1002D40F08E806546082A0BD12368AA
:10198000DB0708D5236962689A42DEBF302305F879
:10199000013C05F1FF35ACEB05032361CDF8008078
:1019A0003B4603AA21463046FFF7F6FE01304DD1F3
:1019B0004FF0FF3005B0BDE8F083394884F845109A
:1019C000136821681D1D1B6815600A060BD5CA0720
:1019D00044BF41F0200121601BB9226822F020029F
:1019E00022601022B7E74D0648BF9BB2EFE765467D
:1019F000B3FBF2F102FB1133C35C05F8013D0B466A
:101A00000029F5D1B9E7136825686169181D1060D0
:101A100028061B6801D5196002E06A06FBD519800B
:101A2000002323616546B9E71368191D11601D681D
:101A300062680021284600F03BF808B1401B606056
:101A400063682361002384F84330A7E723692A46AB
:101A500039463046C0470130AAD023689B0713D4CB
:101A6000E068039B9842B8BF1846A3E701234A46A3
:101A700039463046C04701309AD00135E368039AB1
:101A80009B1AAB42F2DCEBE7002504F11909F5E7FC
:101A9000002BACD1037884F8423004F142056CE7A6
:101AA00063BC000874BC00080000000000000000D7
:101AB00001F0FF01102A2BDB10F0070F08D010F8FF
:101AC000013B013A8B422DD010F0070F42B3F6D103
:101AD000F0B441EA012141EA014122F007047FF01C
:101AE00000070023F0E80256083C85EA010586EA73
:101AF000010685FA47F5A3FA87F586FA47F6A5FAAF
:101B000087F68EB9EED1F0BC01F0FF0102F00702BA
:101B100032B110F8013B013A83EA010313B1F8D165
:101B20000020704701387047002D06BF3546033846
:101B3000073815F0010F07D1013015F4807F02BF7F
:101B4000013015F4C03F0130F0BC0138704700BFD0
:101B500010B5431E0A44914200D110BD11F8014B4B
:101B600003F8014FF7E7884210B501EB020307D8ED
:101B7000421E99420AD011F8014B02F8014FF8E7D2
:101B80008342F5D98118D21AD34200D110BD13F87F
:101B9000014D01F8014DF7E738B50546002945D05C
:101BA00051F8043C0C1F002BB8BFE41800F0D2F829
:101BB0001F4A1368104633B9636014602846BDE8B5
:101BC000384000F0C8B8A3420CD92168621893428B
:101BD00004BF1A685B68636004BF52182260046027
:101BE000ECE713465A680AB1A242FAD919685818A4
:101BF000A0420BD120680144581882421960DDD1FF
:101C0000106852685A6001441960D7E702D90C2362
:101C10002B60D3E7206821188A4204BF11685268FC
:101C2000626004BF091821605C60C7E738BD00BF6F
:101C30001001002070B5CD1C25F0030508350C2DD2
:101C400038BF0C25002D064601DBA94203D90C2321
:101C50003360002070BD00F07DF8214A14682146F1
:101C600091B9204C23681BB9304600F063F820601E
:101C70002946304600F05EF8431C24D10C23336023
:101C8000304600F068F8E4E70B685B1B18D40B2BB8
:101C90000FD90B60CD50CC18304600F05CF804F141
:101CA0000B00231D20F00700C31AD3D05A42E25084
:101CB000D0E78C424B6816BF636013600C46EBE7BD
:101CC0000C464968CCE7C41C24F00304A04205D0AC
:101CD000211A304600F02EF80130CFD02560DBE726
:101CE0001001002014010020F8B5074614460E46E6
:101CF00021B91146BDE8F840FFF79CBF22B9FFF7B4
:101D00004BFF25462846F8BD00F026F8A0420FD22A
:101D100021463846FFF78EFF05460028F2D03146AF
:101D20002246FFF715FF31463846FFF735FFE9E752
:101D30003546E7E738B5064C0023054608462360DC
:101D4000FEF7E2FF431C02D1236803B12B6038BDCC
:101D50001C0100207047704751F8043C181F002BED
:101D6000BCBF0B58C01870472E2E2F737973746543
:101D70006D2F7372632F73746D333266342D686107
:101D80006C2F73746D3332663478785F68616C5F82
:101D9000636F727465782E6300000000000000001D
:101DA0000102030401020304060708092E2E2F7303
:101DB000797374656D2F7372632F73746D3332662C
:101DC000342D68616C2F73746D3332663478785FAC
:101DD00068616C5F7263632E6300000061626F7202
:101DE0007428292C2065786974696E672E2E2E0060
:101DF0006173736572745F706172616D282920660A
:101E000061696C65643A2066696C652022257322DD
:101E10002C206C696E652025640A00005374616390
:101E20006B206672616D653A0A0000002052302016
:101E30003D2020253038580A000000002052312073
:101E40003D2020253038580A000000002052322062
:101E50003D2020253038580A000000002052332051
:101E60003D2020253038580A000000002052313231
:101E7000203D20253038580A00000000204C522018
:101E80003D2020253038580A000000002050432013
:101E90003D2020253038580A0000000020505352C1
:101EA000203D20253038580A000000004653522FAC
:101EB0004641523A0A0000002043465352203D203A
:101EC00020253038580A00002048465352203D2033
:101ED00020253038580A00002044465352203D2027
:101EE00020253038580A00002041465352203D201A
:101EF00020253038580A0000204D4D464152203DE3
:101F000020253038580A00002042464152203D200A
:101F100020253038580A00004D6973630A0000001C
:101F2000204C522F4558435F52455455524E3D2048
:101F3000253038580A0000005B48617264466175BC
:101F40006C745D0A000000005B4275734661756C3D
:101F5000745D0A005B55736167654661756C745DFD
:101F60000A0000000000000000000000010203045D
:101F700006070809808080807F7F807F807F808047
:101F8000807F808080807F80807F807F807F807F57
:101F900080807F807F807F807F807F80807F807F48
:101FA000807F80807F807F807F807F807F80807F38
:101FB000807F80807F808080807F80807F807F8026
:101FC0007F807F807F807F808080808080807F8016
:101FD0007F807F807F807F807F807F807F807F8009
:101FE0007F807F807F80807F807F807F807F807FF9
:101FF00080807F807F807F80807F80807F80807FE7
:10200000807F8080807F80807F807F807F80807FD6
:10201000807F807F7F807F807F80807F80807F80C7
:10202000807F80807F807F807F807F80807F8080B6
:102030007F807F807F807F807F807F807F807F80A8
:102040007F807F80807F80807F80807F807F807F97
:10205000807F807F807F80807F80807F807F807F87
:10206000807F807F80807F807F807F807F80807F77
:10207000807F807F807F80807F807F8080807F8066
:102080007F80807F807F807F80807F807F807F8057
:102090007F807F807F807F807F80808080807F8046
:1020A0007F807F807F807F807F807F807F807F7F39
:1020B000807F807F807F807F807F8080807F807F27
:1020C000807F807F807F807F807F807F807F807F18
:1020D000807F807F80807F807F80807F807F807F07
:1020E000807F80807F807F807F7F807F807F7F80F8
:1020F0007F807F807F807F807F807F807F807F80E8
:102100007F807F80807F807F80807F7F807F7F80D7
:102110007F7F807F80807F807F80808080808080C4
:102120007F807F7F8080807F807F807F80807F80B6
:102130007F807F7F7F80807F7F7F807F80808080A7
:10214000807F7F807F807F7F7F7F7F807F80808098
:1021500080807F807F8080807F807F7F7F7F7F8087
:102160007F7F80807F7F80807F80807F7F80807F77
:102170007F80807F7F807F7F8080807F80807F8066
:10218000807F7F7F807F7F7F7F7F7F7F7F7F80805B
:10219000808080808080808080807F80807F7F8042
:1021A000807F80807F7F7F807F7F807F7F7F807F39
:1021B0007F7F807F7F80807F80807F7F7F807F7F29
:1021C000807F80808080807F807F7F7F7F807F7F17
:1021D0007F807F7F807F7F8080807F80807F7F7F08
:1021E000807E7F807F7F7F81807E80807F7F8080F8
:1021F0007F7F807F7E7F7F7F7F7F80808080817FE9
:10220000808080807F827F7F827F808180808180CC
:102210007E817F7D80807D7D81807D7E82817E81CB
:1022200084817F81807D7D807F7A7E847F7D8484B0
:102230007E7E837F7B7D82817A7D85837E82847DA5
:102240008082817B7E837D7B7D7D7C7E7F7B7B80AE
:102250007F7E7D7D8381808080807F848181848575
:10226000818086807D857F767E827B7C817C7C857B
:102270007F7D8380837F7C807F807A7E847E807D6B
:10228000817C737F817C777F847E7C7F7F7A827E76
:102290007F82868D818386858583817D7F837F7E16
:1022A0008B7B818C797A78807E73837E7B807D8640
:1022B0007990AD80829D94767BAA6D618F85586CF4
:1022C000A674628A975D6CA4735777926D5CA2972F
:1022D00071849C845B8F9763628F8B6985A88777F5
:1022E000A29C6D799B755F85926872A57D5E91A0B9
:1022F0006569A97E518FA65F60AE8E4585BB6B5424
:10230000A9AA4770BE783D92B74B56BA8F4283BF99
:10231000684AA79A4969B17F4F8F9F6A649896650A
:102320007891876C7BA080718E9E7D67988D647C90
:10233000967E6293A066779F8268859B5D6D997C8F
:102340006872996E5A978866709B8A4C9698756EDB
:102350008EA95488AB7E6782AE685E97896A63A156
:102360008B5091A0705488AC4B5E9F854D68BF65C3
:1023700061B7A86264BB974C92AD725EA7B94C83FB
:10238000BD885581BE70569E865655A8893D92A03F
:10239000664B929A51689F785268B6784DA4A268AD
:1023A00068AA906278A6795E81B57965AF98677BF7
:1023B000A08A60769E6A667BA56B67A67E6279942A
:1023C000845E7F8C686878A35F79A5816D7E9D8629
:1023D0006D888F736E919D5F8BA277748D978067E8
:1023E00084866D638F8E5A9396667088917B698F11
:1023F000836E69A48455AB93687E91906F7D9184C0
:102400006D6DAF6C67AB8B647F9A836D798D755BF7
:10241000729F5D68A97D598195846B898E776B87E2
:10242000AA5E7EB1876B87A57D67918C6E578E8B78
:1024300050879F74608E9775708C8568689C8557EF
:1024400090AA6C6D9B946E7D9B766875976F619B6F
:10245000986A789B8C73868E7B6F82966A709D9348
:102460006382927D7780826F6C79866D6F998367C6
:102470008890867585857777868F6C81A382768F25
:102480009381768280716E8A8164869E6F768F8258
:10249000767580756B6E897B5F8E9A6D849A8E756A
:1024A000868F7A7681957278A4926E8B93817784E9
:1024B00083746C7E9066749C8464878C736C7C7C63
:1024C000696486856281A5806C9C977A7A91856B18
:1024D000799A7D6895A06D76A4866C7B8C786582F0
:1024E000946E6F99935D7FA07665808965668C8117
:1024F00062809D826293987873888A6E7B98876FDA
:1025000088A0806C999476759385667B92796C84AB
:10251000926B6692866A6D8D7668838B77738B92E9
:10252000737695916E76957C6B8592747492906BB0
:102530007A9A8B697E9677728F8F6F789986687F8B
:102540009A7C61878A697091826C87957B6E8B918A
:1025500071708C836D7E8D7D76888B74768D8E6D9B
:10256000758D7971828777818C7C777E8B85727D82
:10257000867F79848580868A807B868D8574828635
:102580007D7D82807B8582747B81847C727A7F7B77
:10259000757F7F7C8484757F89877B7685837C7C4F
:1025A00084837E8A7F76858C85727C857E7A82851F
:1025B0007D898A7A7A8E887A767D81797B7D7B8225
:1025C000867F76808E837C7C81827E807D808A80FF
:1025D0007C7C85867B79717B7F79737988837D7F2D
:1025E0007C858C84777686897C76848A8080837CDF
:1025F000848C7D71788885747B8A888081847E8CC8
:102600008D79747F8D7F737F85847B7B7A7A897DDA
:102610006E707E8877727C8484777B7D868F7F76F0
:102620007889907E76808D877C7E7C8A8C7C75779D
:10263000878A7A737F8C83797E828A857D767A8B8E
:10264000887773888E7B777D82878379707D8E858E
:1026500071768F8A78787D838482736D85917E6AA6
:102660007E918379787E838980697290937870896E
:102670008F87837B7D8A937D697D928D7775868434
:102680008882717484886E687C868576797D808B7B
:10269000807479888572768284847F827C848D7E42
:1026A0007780877C768084858887868089887F800C
:1026B000838278798183848083837C827C797B7D2B
:1026C000796F757E85817D848080827B7B7C807A3A
:1026D000757F878982828581847F7E7F7D7E767605
:1026E000808A8881858484837E8281817D767882D8
:1026F0008B82818282837E7C7F7E7C7974778688E0
:102700007F808182837D7C7D7A7A767379888981E6
:10271000828083817C7F7D7B7B79787F8D898786B2
:1027200083857F7F837C7878797B838984868384A3
:10273000837A7F827B7674797F88868283818580A5
:102740007980817973757B858C86838181847D7B9B
:102750007F7F7673767F8A8C85838083827D7D7D83
:102760007B737277838D8A838182858281807F7B70
:1027700075777D8A908A8380828381817A78747369
:10278000777E898A837D7C807F807F787571767F74
:102790008A908C827B80858485817B75747B848F15
:1027A000928B7D777E8385857E7771737E8990900D
:1027B0008576767E8181827A737076818A918B7B31
:1027C0007176808586817571737D8A929287777024
:1027D0007984898981767275808D969284747077F8
:1027E0008288867E7875757D898F8D8376717681F6
:1027F0008585827E797880888C8C827570778084DC
:10280000868480797881878B897F706D777F8388D4
:102810008680787A81868B897C70727A7F858988B8
:10282000837E7F828588857B75797E7E81848583A2
:1028300080807F7D807E78797F7F7B7E83868784A2
:10284000817C7A7C79797F83807D7F84898B868384
:102850007C7A7B787B81827E7C7F848A8783807987
:102860007777777B80817C7C8086898685817A7981
:1028700078797F84847E7F82858787867F7979785F
:102880007C8287857F7F80828385827A7776777D59
:102890008487848283838284847F797777787E8338
:1028A00083808183818182807B7A7B797C8284832F
:1028B0008183828080807D7C7D7C7C818585838214
:1028C000838180807F7C7E7D7C7D83868482817F06
:1028D0007D7E7D7C7D7E7B7B7F848584817E7C7C10
:1028E0007D7C7D807E7C7F84868786817C7D7E7DED
:1028F0007B7F807D7D81838586847D7A7C7E7C7DE7
:1029000082807C7E82848486837B797C7D7C7F83CD
:10291000807D80848384847F78797D7C7C828581BE
:102920007F83858483827C787A7B7A7B81848280B2
:1029300084848383817C79797A7A7B81858282859C
:10294000838282817C7A7A79797C8385828485838B
:102950008282807C7C7B7A7B808585838584818272
:10296000817D7A7B7A797C82848383848281837E71
:1029700079797B7A7A8084848384848183837D7867
:10298000797B7A7C8284828284838183827B777A5A
:102990007B797E8484828385828183807A797C7B43
:1029A0007B8185848485848182837F7A7A7C7A7B2B
:1029B0008182828383818081807D7A7B7B7A7D8224
:1029C00083838483818182807D7C7C7C7C7F828206
:1029D0008383818081817F7D7B7C7C7D80828383FA
:1029E000838180817F7E7D7C7C7D7E8183848381E9
:1029F00080807F7E7E7D7C7D7E7F82848483807FDD
:102A00007E7D7D7D7C7C7D7E808385848280807FD1
:102A10007D7E7D7D7E7E7F8285868481807F7E7DBA
:102A20007D7C7C7D7E7F82858482807E7E7E7D7CB7
:102A30007B7C7E7E80838683817F7F7F7F7F7D7CA2
:102A40007D7E7F81848582807E7E7F807F7C7C7D91
:102A50007E80828585817F7D7E7F7F7F7D7D7F807B
:102A600081838584817F7D7D7E7F7E7C7D7F81816A
:102A7000838583807F7D7D7D7E7D7C7E818181835A
:102A800084817F7F7D7C7E7F7D7D80828181848348
:102A90008180807D7D7E7E7C7D808181828382813C
:102AA000817F7D7D7E7D7C7F81818182838181812B
:102AB0007F7D7D7E7C7D7F81818081828180807F22
:102AC0007D7D7D7C7D8081818182838181817F7D0F
:102AD0007D7D7B7D7F80808182828182817E7D7E03
:102AE0007D7B7E8080808182828282817E7D7E7CF1
:102AF0007D7F81808082828181817F7D7E7D7C7DE2
:102B00008081808182818181817E7D7E7D7C7E81CC
:102B100080808182828181807F7E7E7C7C7F8080BC
:102B2000818282818181807E7D7C7B7D7F808081AE
:102B30008282818181807F7D7C7C7E808181828296
:102B4000828180807F7E7C7C7C7F81818182828289
:102B500080807F7F7D7C7C7D7F818181828282817C
:102B6000807F7F7D7C7D7E80818181828282807F6B
:102B70007F7E7C7C7D7F808081818282817F7F7F60
:102B80007D7C7D7E7F808181818282807F7F7F7D51
:102B90007C7E7F80818180818282807F7F7E7C7D40
:102BA0007F80808180808182817F7F7F7D7C7E7F2E
:102BB000808181807F8182807F7F7E7C7C7E80811E
:102BC000828280808181807F7F7E7C7D7F80818208
:102BD00081808081817F7F7F7D7C7D7F80808281FD
:102BE000808081807F7F7E7D7D7E808081828080ED
:102BF0008081807F7E7E7D7D7F80808182818081DB
:102C0000807F7F7E7D7D7E7F8081818180818080CD
:102C10007E7E7E7D7D7E7F818182818181807F7EBF
:102C20007E7D7D7D7E7F818282828181807F7E7EAE
:102C30007D7D7E7F7F8081818181807F7E7E7E7DA4
:102C40007D7F80808282818181807F7F7E7D7D7E8D
:102C50007F80808181818180807E7E7E7D7D7E7F80
:102C6000808182828181807F7E7E7E7D7D7F80816A
:102C70008181828181807F7D7E7E7D7E7F80818259
:102C800082818181807E7E7E7E7E7E808082828146
:102C90008181817F7E7D7D7D7D7E7F80828281803E
:102CA00081817F7E7D7E7E7F8080818281807F7F2B
:102CB0007F7E7E7D7E7E7F818181828182807F7F1B
:102CC0007F7D7D7F7E7F81808183818080807E7E0D
:102CD0007E7E7E7E80807F80807F8081817F7D7F01
:102CE0007F7F8181818283817F7E7D7F7F7F7F7EE9
:102CF0007E808281828182807D7D7E7D7C7D7C7EE6
:102D00007E7F81807E80818183827F8180828180BD
:102D100081838482847E7E7F7F7D7977797D7C7ECE
:102D2000807F7F818081848484828183868684837E
:102D30007F7E7F81807B7878797A7D818180807EBB
:102D40007C7C81828082807F82848585847E818074
:102D50007D85817D7F7C7D827D7B807E7983858280
:102D6000837E7F7C7D828076777C777F898C8B8A5F
:102D70008A8B837B7E786B747B757680837F869469
:102D800092878884707280787A8076787980909241
:102D90008F867B6B75797B887C757A758592948D2F
:102DA0008578717F7881827478817D86928A7E8130
:102DB0007C7885837E74737D8184918E7979867B1E
:102DC000808A7D72707882808490806E8588787E1B
:102DD000817373808D8779888B7B7F9180748180EC
:102DE00070748388797B8C87747C8F797586847303
:102DF0007885887A8499826C868B747C837B6E74E8
:102E00008E8B7082977B6E8F85717C8D7A66829AAD
:102E1000817393946F7591806A7A8671698B9772CA
:102E2000739E9065809A7861858B60729F84638EB3
:102E3000A5746997966C6D917D61849D74699D9F61
:102E40006572A2865B8398695E9391617DA7815DBF
:102E5000929D7265908C60709D84659A9D6D6C9654
:102E60009568759A7E5A8E98676B9890637897816B
:102E7000648895706593926A7FA17E5E8A9870706F
:102E80009383637C9F7F6D92986A6B9188697B8F37
:102E900074688C92757C9685657D94836F84896F48
:102EA0007795836F8A926D698C8C73798977729329
:102EB00091777C90866E7F8C7C71827D6E7C908217
:102EC00075838C77748D86757B877870878F797D15
:102ED0008F8571808C7C78877F6D7C8E8275848DE8
:102EE0007977858276808876748589777C8D8576FA
:102EF0007E857D7D868073808D8377818B7F7780D3
:102F0000817D80877B7783897D7780827A7B817ED4
:102F10008187877B7781837D7C7D7C7D86848284AD
:102F200087847E7D7D7B7A7D7D7E808481818384A4
:102F3000807D7E7B797B7E80808384828185878291
:102F40007F7E7C7A7C7F7F807F81828183857F7B8F
:102F50007C7C7A7B81807E7F85828287837D7B7D7E
:102F60007B7A7D7F7F7E8184828488827D7D7B7A6F
:102F70007A7D7E7E7E8485838586807E7D7A797863
:102F80007C7E80818583858685807E7B7A7B797C4B
:102F900080818185848485847F7C7B7D7A797E8035
:102FA0007F8385828284827D7B7B7D7A7B8081802A
:102FB0008485838485827E7B7B7B7B7E828280810D
:102FC00080828483817B77797D7E8081818081820C
:102FD000848382817B797D7F818182817E7F8384EE
:102FE00080817F7A797E808182837F7A7E858481E9
:102FF000807B777C83838182837D7C8385818080D5
:1030000079797F818084847E7B7F848281807A76D7
:103010007B817E8386827B7F858280807E77797FBD
:10302000808087897F798087817E7F7C7379837FA9
:10303000808A8A7B7884877D7B8278718288808091
:103040008B87767A8B83767F82737288877A868E77
:103050007E73838C7A76837D6F7D8B817E8B8B767E
:10306000788B85747B85757288887A828E7F73846D
:103070008C7976857E6F7E8B7E7D8D89757A8C824C
:10308000747F87727289867A86907D71858D767954
:10309000887C6B7D8E7C7E9089727D8F7C70818830
:1030A0006F6F8D867689927671898C73768B7D6849
:1030B0008190797A928C707C93806E7F8B6F6D900B
:1030C000897383947E6E899073708A83667D947B06
:1030D000758F91717793846B7A8B746B8E8D7480FE
:1030E00096846D8490766D868869779583748C92CA
:1030F00071738F876B758E7B66888E758197876CF1
:1031000080937D6B81896C799487778995756C8CB8
:103110008F71738A7C6581907A7A948B6C7A9585AD
:103120006D808B71708D897782977F6C85927970B5
:1031300085836B788F80778C9173728E8C70778A91
:103140007B6D848D7B7F92876C7D9181708088728E
:10315000768C857A85907A6B84917A768780707F79
:103160008C7E7A8D8B6F758F88787D867672878757
:1031700078808E816F7E8C837C8681707A887F7761
:1031800083887A77868A8181887B727D827B7B8344
:1031900082797E888782858579767C7E7A7D81803A
:1031A0007E82888583868379787A797A7F817E802A
:1031B0008686848687807B7A79797B7E7F8082830E
:1031C00084848686817B7979797A7E7F8081838306
:1031D000848886807C7A78797B7E808382828385EE
:1031E0008784807B7879797B7E81838485858687D7
:1031F000837F7A7776787B7E8183858585878682D3
:103200007E797575797B7E81848686868684827ECA
:10321000787575787B7E82868786868683817D79C0
:103220007676787A7F83878686868583817D7976B0
:1032300076787C80848886858585827F7C787575A4
:10324000797D82868885858483807E7D7874767B8F
:103250007D818788848484827F7F7E79767A7C7D75
:10326000838886828383807E817E78777B7C7E855F
:103270008784818282807F807D79797C7D8085874B
:1032800084808182807F7E7C7A787B7D8084888543
:103290007F8182807D7F7D7A7A7E7F808487827E37
:1032A00081817E7C807D7A7B81818187887F7B7D27
:1032B000807D7D817D7B7E84818388877C787B7C1B
:1032C0007B7E817E7B7E85838689857A797D7D7A0A
:1032D0007F827C79808484888B83767B807C7A80F3
:1032E0007F797982868489897B757B82807D827EE5
:1032F000777A868685898778757D827A7D847C77E2
:103300008089848389827479857E757E8278798BC1
:103310008C82838B7E727C867874807E737F9287AA
:103320007C8891767187836D7788786F88947F7FAA
:10333000948A6D78907A67828B6D7597847186997F
:103340007B6D898E69728E766983977D7591916E9A
:10335000769482647D91706A9390727C9B8368837B
:103360009572688D8966749C856E8A9A726D928D4D
:103370006676967862899A7375988B667D9B7C6475
:103380008890676B9C8C6B849D726490956C74952F
:103390007762839B7A73918E687295826681936F50
:1033A0006795956F7B9C79628A97736C9087647838
:1033B0009F816F8C976E6895926371997A5F8AA1ED
:1033C00072729C8D5E77A37E5D8C96646AA08C661B
:1033D00080A3795C8C9E6A639A875C7CAA7C6195E9
:1033E0009B6466A18C577AA1715A96A06B6FA686D2
:1033F0005580A47B578F985F67A8895E8BA8785CFF
:10340000929D69659D825989A57A67949B696A9C9A
:103410008D5C799A725B919E6F709C8F64769B82B3
:103420005E83966C649A936D7DA28560819B7460C7
:103430008C8E656E9F896887A078638D9968689285
:10344000805E80A47B6B969B6A6A98905E72986F90
:103450006194A17172A18F61729B7A5E8694696892
:10346000A2946C7EA38260879A7060878A6478A732
:10347000876B8D9F75618F94646A8E7C6388A07C56
:10348000729A976D6C948861758D72679797737B4C
:103490009E8C6679997B627F866B739C8A71899C0E
:1034A000806A85926F6A837E697F9883768C98772D
:1034B000738D8B6B7085756A87947B7F999071771C
:1034C0009383687A826D76928774829888708095EB
:1034D0007C6B7E7E6978958571879C836D839276FF
:1034E0006E827B6881967D72909779728B8B7174F6
:1034F0007E74708A8E787B91917A74898874757ADB
:103500006F758E8A7680978D767B8E7E717B796CD7
:103510007D90837786978474818F7C757C737084AB
:103520008D79778D968075888C7C747A7471878D8F
:10353000797890937B75878C7A767870788C86739F
:103540007E938F7B7888887D77716F7D8D81758183
:10355000928C7C7A86867F7A6E6E848F7C7485905E
:10356000867B808681807C6E6E8890787289927F5F
:103570007985877E7F7F6D6F8C8F76768C8D807B53
:1035800087837A7F7F6F748D8979798A897C7D8939
:1035900083777D7E71768A88787C8D887C818A7F2E
:1035A000787F7D6E788A84777E8A857E858A7C772F
:1035B000827C707B878078828A837E87897C798011
:1035C0007A727F877D77838B837F8987797A827709
:1035D0007581857B79858980808C87797C7F7776FA
:1035E0008282767C8A877E858B837C7F7C757981DD
:1035F0007E777F89847F8689817C807C757B817AD8
:10360000798488828187877F7D807A757C807A7BC8
:103610008587828489837C818377747E7E777E85AB
:10362000838289897F7C848276767E7B7980837FA2
:10363000868C867C7E857F76797E7A7D827F7D878B
:103640008D837A80867E787C7C7A80827C7D898A74
:10365000807981867D797D7B7B82827B7F8A887D74
:103660007A82837D7C7D7A7E84817C8188857B7C67
:1036700082817C7D7D7A7F847E7D8588817C7F824E
:103680007F7E7E7A7B82827C7F86857F7E82807E43
:10369000807D797E837E7B8387817E81817F808030
:1036A0007A7A82837B7C85847F7F827F7F82807928
:1036B0007C83807A7F85817E81817E80837E797F15
:1036C000847E7A81847F7F83807E82837C7A8182FC
:1036D0007C7D83817E81827E7F84817B7D827F7BF6
:1036E00080837F7E83817C80857F7A7F827C7B82E2
:1036F000827D8084807C82847D7B81807A7D8280D3
:103700007D82847F7E84827B7D817E7A7E827F7EC5
:1037100083827E8084807C7E817D7B80817E7F83AE
:10372000817F81837F7C80807C7D81807E8183809E
:103730007F82827D7D807F7C7E817F7E82827F8092
:1037400083817C7E817E7B7F817D7E82827E81847F
:103750007F7C80817C7C81807C7F84807E82847E73
:103760007D82807B7E827D7C82847E7E84837C7F62
:10377000837E7A80827C7C83827D7F85817C81834D
:103780007C7B82817B7E83807C81857F7D83827B45
:103790007D827F7B80837E7D83847D7E84807B7F32
:1037A000827D7B82837D7E84827C80847E7B81811E
:1037B0007B7D83817D8084807D81827C7D82807C15
:1037C0007F83807D82847F7F83807C7E827D7B80FF
:1037D000827E7F83827E80837F7C80807C7D8180EF
:1037E0007E8083817F81827E7D817F7C7E817F7EE2
:1037F0008082807F82817D7F827E7C7F817E7E81D0
:10380000817E8082807D80817D7D80807E808280BF
:103810007E81827F7D81807D7E817F7E81827F7FB0
:1038200082827E7E817F7D7F807E7E81817F80829D
:10383000817E7F807E7D7F7F7E7F81807F8183818F
:103840007E7F807E7D7F7F7E7F81807F8183807E83
:1038500080807D7E7F7F7E8181808082827E7E806F
:103860007E7D7F7F7E7F8281808183807E7F7F7C63
:103870007D807F7E8182818182817E7E7F7E7C7E53
:103880007F7E7F8282818182807F7F7F7D7D7E7F40
:103890007F808282818181807E7E7E7D7D7F7F7F31
:1038A000818282818081807D7D7E7D7D7F8080811F
:1038B00083828080817E7C7D7E7D7D818181838409
:1038C000818081807C7B7E7E7D7E818282838380FD
:1038D00080807E7B7B7E7E7D7F8383828382807FF0
:1038E0007F7D7B7C7F7E7E8284828282817E7E7FE2
:1038F0007C7B7E807F7F83848282827F7D7E7E7BD5
:103900007C7F81808184838282817E7D7E7D7B7DC0
:1039100080818081838281817F7C7D7E7C7C7E81B1
:10392000818183838181807D7C7E7E7D7D8082829A
:1039300083838181817F7D7D7F7F7D7E7F8080808D
:10394000807F7F807E7D7E7E7E7D7F828081838181
:103950008081817E7D7E7F7F8181818082827F7E6A
:1039600080807F7E7F807F7F807F7F81807D7D7F65
:103970007E7D7D807F7F8181818182807E80807D50
:103980007E8082808183818081817F80817F7E7F34
:103990007D7D7F7F7D7E807F7E7D7E7E807F7F7E42
:1039A0007F807D7F82807C7D7C78767D7F7F818536
:1039B000868382807E818384828689827D7F847DE6
:1039C0007A7B7D7D7C7F7A7C8180808486858484FF
:1039D0008081818083858485857F797B807F7D7CE4
:1039E0007D7B78777577787E7E7F8388857D827C06
:1039F00075787F7E7A7C8181808687898C8F8B86A3
:103A00008F8F888F939C9C98907F71656D63565FB4
:103A100065657574666C78725C687884A1A8A29EEE
:103A20009F9D93968F919490907E6C6A71665C6571
:103A300067626B7B7276867F78878C7A7C879089C9
:103A40008C928E8E94A09196A396897F795E545421
:103A5000565C4A5D6B61677B7B778A8D949B9697FA
:103A6000969CB19C83948D847D816B6580747680F7
:103A7000898B7C7C7C6B6670766C6A5F6778766F0E
:103A80007B84818E8D8A848B8B8B8A8D888B8C86B0
:103A9000888E818B8F6D717278787E6877946B7D5C
:103AA0008C8090938E8089816C7C6E6F7E7079841F
:103AB00079848C768F937D707B8273837F84778B00
:103AC0009677858B8E8D8A878D918E9387877B796C
:103AD0007A6D766A767B71827174807B7D7E7C7A6A
:103AE000897E7C8870829076898B8680898B8A7BA0
:103AF000849A7B8197817184816D5F7E6C877971F7
:103B0000886D848179788D8B7D8C828094878A7D85
:103B1000918D74877F79758D80708E74827F7576B4
:103B2000707A7B846E819784809485868E93787D6D
:103B3000857B7677766B7A707D858A7789907A82B5
:103B40007F7785817287756E8A7A76858086868D85
:103B50008E878986938D7D85817B796C677267748A
:103B60007C6D7A8A6C76957F8D878A928C94817E23
:103B70008A80817E708692748180748D767D796E64
:103B80007E7A8C796B858172887A6B7F81867D6E77
:103B90008D98828F887684988E737A917E858D77C2
:103BA00074807D7C6E7B94757C857E817976807354
:103BB000787F7B7A70877F72807E85847C878A8A13
:103BC0007C838D84778B99767A879475798E748FC0
:103BD0008B767980947C6D7D7977747D7F745F7D41
:103BE0007D68727C837881848E8E8C7693A48881A4
:103BF000849D877C846D83827C8172817D896772DC
:103C000092667383826A7C8A70846B7C8486837CF0
:103C10009289A18875889A84758483787C82707172
:103C200088806579867E6B857D7284808A708B88BA
:103C3000828983827C8D837F78818E7F7494837A5E
:103C40007F7F856F88757587807F787E868D7369A5
:103C500091846D8A8B7E7394866D8C7B7B7B85795A
:103C6000737C818D6B74888F737F91738D93787E55
:103C70008A8A77798C7A807F787C847C758B7E7257
:103C80007388806985877A848777778E8B7979893D
:103C90008D7E8289817A8E916A7D867E7C83856C19
:103CA0008189766B788A7D767F847B83866F809628
:103CB00083758D847891837A7E898575827C827CF8
:103CC00080816D827F827C7F8464928C5B7E948510
:103CD00076868F80828A76757F848D6E77858A7CE2
:103CE0006987897D778287767A8A7E7D86868386D4
:103CF0008577827B7F8080867883867A71858C7ACF
:103D0000748289747682787381857C76888C7285DA
:103D100097747E9687798289767F8D7F7280847B87
:103D20007F72787E817F757C8D7B788B75828881B0
:103D30007677897A7A818581897F84897E8B7B8178
:103D4000837A7E7E887F7C7D7483816E79877F8095
:103D500083828285867D7B83887C7B7E817B7C825F
:103D60007A7C8681778B7F7A8785827A85877D804A
:103D7000817E818580797C7F82797B7E818377805B
:103D80007F7D7E7E7C7D83817B7E81837B79878442
:103D9000878088897E88807C8083817D787B80781D
:103DA00079807E7C7C837A7A85807C79817E7E8333
:103DB00080847C82877F8182857C82838083848BE0
:103DC000808185817B7E817D777B7C7B7C797B7527
:103DD0007C7D7D7C7F817C8485848087857D8186D8
:103DE000817D8583858183847D83847E7C7F7D7ACC
:103DF0007B7B827979827C7F757C81817F828581E2
:103E0000867F837D8384797A84857E7F7E808081AE
:103E10007C7D82817D7D877F7F8281837D7E7C83A7
:103E2000827E7E7F86827E7F80847E797E7F7D7AA1
:103E300078817D7C7E82817F7F7D8681818385877D
:103E400082828381827B7B827E7D7B7C80807C7C86
:103E5000807D7E7F7F827E808080837C7F7F80816B
:103E60007C82847F81847F7C827E7E8080807D8056
:103E7000807B7F7F7F807E82807C7F827F7E84814B
:103E80007E7F827E7D7E7D7F7B807E7D8182807F46
:103E90008283817F838282817F82807D7F817F7F19
:103EA000807F7F7F807C7C817D7B81817E80818023
:103EB000807B807F7E8280818083837F82837F7E00
:103EC00083807D7E81807D7F7E7E7C7E7F7F7E8104
:103ED000817D807F7E7D80827F7E827F7E7E7F84EB
:103EE0007F8183808183827F7F82807F7F7F807BD1
:103EF0007F817D7B7F7F7A7D807D7F7F7E7E7E83DD
:103F00007F7F838280818182817F81807E81807FAB
:103F100082807E7F7F7F817E7E7F817E7C817F7FAE
:103F200081807E8081817E7F8080817F807F7F8095
:103F3000817F7E81807F7F807E7D818080807F8188
:103F4000807E7F81807F7E7E807F807F7F7F7F807D
:103F50007E7F7F7E807F7E7E7F807F7E83807F826C
:103F6000807E80817F807F80808081807F80837F52
:103F700080817F807F807F7E7F817F7E7F7D7E804E
:103F80007F7D7D7E817F7E81818080828181818134
:103F9000807E80817F7F807F817F7E7F7F7E7E7E2F
:103FA0007E7E7E81807D7F8181807F808081807F19
:103FB0007F81817F80807F80807F7E7E7F807D7D0E
:103FC00081807E81817F8181817F7F83807F8180ED
:103FD0008080817E7F80817E7C7F7E7D7F7F7D7DF6
:103FE00080807E7F7F82817F8280818281808081CC
:103FF00080807F807F7E7F7E7E7E7F7F7F7C7E7FD6
:104000007F7E7E7F80817F808182818181808181AE
:1040100081808080807F7F807E7F7E7E7E7D7F7FAF
:104020007D7E7F7F7F7F7F808180808080817F8099
:1040300081808081807F817F7F807F7F7F7F7F7F86
:104040007E7F7E7E807F7F807F808080807F80807B
:1040500080808080808080807E7F807F7E80817F66
:104060008080808080807F7F81807F7F7F7F7F7F57
:104070007F7F7E7F7F7F807E7F80807F7F8080814B
:10408000808081818181808080807F80807F807F2F
:104090007F7E7F807E7E7F7D7F7F7F7E7F807F8033
:1040A0007F81817F8180818080817F7F8080807F10
:1040B0007F7F7F80807D7E807F7E7F7F7F7F807F10
:1040C0007F8080807F7F80817F80808080807F7FF5
:1040D00081807E7F807F7F7F7F7F7F7F807E8080EB
:1040E0007F8080807F81818080808080807F7F7FD3
:1040F0007F7F7F7F7F7F7F7F7F7F807F7F7F8080CD
:10410000807F7F8080807F80808080807F80807FB4
:104110007F7F7F80807F7F80807F80807F7F8080A7
:104120007F7F7F7F80807F7F7F807F7F7F7F7F7F9C
:104130007F7F8081807F808081807F8080807F7F83
:104140008080807F7F80807F7F807F7F7F7F7F7F79
:104150007F7F7F7F807F7F80808080808180808064
:1041600080807F808080807F7F80807F7F80807F55
:1041700080807F7F7F7F7F7F7F7F7F7F7F7F7F804C
:1041800080808081818080808180808080807F7F2E
:104190007F807F7E7F7F7F7F7F7F807F7F807F7F2D
:1041A0007F7F807F807F7F80807F7F808080808016
:1041B00080818080808080807F7F807F7F7F7F7F05
:1041C0007F7F7F7E7F7F7F7F7F807F7F80808080FB
:1041D000807F808080807F808080808080808080E1
:1041E0007F7F807F7F7F7F7F7F7F7F7F7E7F7F80DE
:1041F00080808080808080808080808080808080BF
:10420000807F7F7F7F7F7F7F7F7F807F7F7F7F7FBC
:104210007F807F7F80807F808080807F80808080A3
:104220007F808080807F7F807F7F7F7F7F807F8097
:1042300080807F7F80807F8080807F807F80807F84
:104240007F7F807F7F8080807F7F808080807F8075
:1042500080807F7F80807F807F7F80807F7F7F7F67
:104260007F7E7F7F7F8080807F8081808080808054
:1042700080807F80807F7F7F807F7F7F7F7F7F7F49
:104280007F7F7F7F7F7F80807F7F80808080808036
:10429000808080808080807F7F7F7F7F7F7F7F7F27
:1042A0007F7F7F7F7F7F80807F8080808080808015
:1042B000808080807F7F807F7F7F807F7F7F7F7F08
:1042C0007F7F7F7F807F7F80807F808080808080F5
:1042D0008080807F7F807F7F7F7F7F80807F7F80E7
:1042E00080807F7F80807F7F80807F80807F7F7FD6
:1042F0007F807F7F807F7F7F7F807F807F808080C7
:10430000807F7F8080807F8080807F7F80807F7FB4
:104310007F7F7F807F7F80807F7F807F7F7F7F80A8
:104320007F7F80807F7F80807F8080807F80807F94
:104330007F80807F7F80807F7F7F7F807F7F7F7F88
:104340007F7F7F7F80807F7F80807F80807F808075
:1043500080808080807F80807F7F807F7F807F8063
:10436000807F807F7F7F7F7F7F7F7F7F7F7F7F7F5B
:1043700080807F8080808080808080807F7F808040
:104380007F80807F7F7F807F7F7F7F807F80808036
:104390007F7F7F80807F7F80807F7F80807F808025
:1043A000807F7F807F7F7F807F7F7F7F7F7F7F8019
:1043B00080807F7F80807F80808080808080807F01
:1043C00080807F7F7F80807F8080807F7F807F7FF5
:1043D0007F7F7F7F7F7F7F807F8080807F808080E6
:1043E0007F8080807F7F808080807F7F7F7F7F7FD6
:1043F0007F7F7F807F7F80807F80808080808080C3
:10440000807F80807F7F7F7F7F7F7F7F7F7F7F7FB9
:104410007F8080808080808080807F7F807F7F80A1
:10442000808080808080807F7F7F80807F80808090
:104430008080808080807F807F7F7F807F7F807F83
:104440007F7F7F7F7F7F7F7F7F7F7F7F7F7F80807A
:1044500080808080808080808080808080807F7F5E
:104460007F7F7F7F7F7F7F7F7F7F7F808080808057
:1044700080807F7F7F7F7F80807F7F808080808043
:10448000807F807F7F7F7F7F7F7F807F7F7F807F38
:1044900080807F7F8080807F8080807F7F7F7F7F24
:1044A0007F7F7F80807F80808080808080807F7F12
:1044B0007F807F7F7F807F7F80807F80807F807F05
:1044C0007F7F7F807F7F7F7F7F7F80807F7F8080F7
:1044D0007F7F7F7F8080807F7F7F7F7F807F7F7FE8
:1044E00080807F7F80807F7F807F7F7F80807F80D4
:1044F0008080807F7F7F80807F80807F7F80807FC3
:104500007F808080808080808080807F7F7F7F80B0
:10451000807F7F80807F7F80808080808080807FA0
:10452000807F7F7F7F7F80807F7F80808080807F93
:104530008080807F7F807F80807F807F807F7F7F83
:104540007F7F7F7F7F7F7F807F7F80807F7F7F8077
:104550008080808080807F7F808080807F7F7F7F61
:104560007F7F7F7F7F80807F80807F80807F808053
:104570007F808080807F8080807F7F7F7F7F807F43
:104580007F7F7F7F807F7F7F7F807F7F8080808035
:104590008080807F80807F7F7F7F7F7F7F80808023
:1045A0007F808080807F7F80807F80807F7F808011
:1045B0007F7F7F7F7F7F7F7F7F7F7F807F7F808008
:1045C000808080808080807F7F807F7F80807F7FF1
:1045D000807F7F7F7F80807F7F807F7F7F7F7F7FE7
:1045E0007F7F7F7F7F7F8080808080807F808080D2
:1045F0007F80807F7F7F7F8080807F7F7F7F7F80C5
:1046000080808080807F808080807F7F7F7F7F7FB1
:104610007F7F7F8080808080807F7F7F7F7F7F7FA4
:104620008080807F7F7F7F7F7F807F7F8080808092
:10463000807F807F7F807F7F7F7F7F80807F808083
:104640007F7F8080808080807F7F80807F7F7F8071
:104650008080807F807F7F807F7F7F7F8080807F62
:104660007F7F7F80807F7F7F807F8080807F7F8053
:10467000808080807F7F7F7F7F80807F80807F7F42
:104680007F808080807F7F7F807F7F808081807D32
:104690007C7E808081808082807E7E7C7D80828224
:1046A000837F7F81807F7F7E7E81838080807D7F0E
:1046B000807F7F7D7E8080817E7E7E7E7F7F838304
:1046C0007F7F7F8183817D7C8080808080818080EE
:1046D0008281827F7F7E7D807D7D828586827F7BD9
:1046E000787E7E7E81818287857D7A7B7B7F827EDC
:1046F0007F848380807D7C7F8084857D7C7E8181BA
:10470000807C79818484837E7E7E7D7B8184848DA0
:10471000867B736E717681848895918C7A6A686FD6
:104720007E828990928E877A6B69737B858B8A856E
:104730008081807674777C8B989479797D79848375
:1047400070758C8473706D74969A817C79778B8C7C
:10475000757281868C96807778777A859391876F4A
:104760006E868075776C718592777B9A9984736970
:10477000627890907B7E8B938E87736171878B823A
:1047800083848E928978746D646B7B93A094816C22
:104790005F61686E7BB2B296887F676A8368668B5A
:1047A000A29EAC98736C71696D7C758CA38F7879BF
:1047B00074606971657D998C5F6D9BB0AE9B744D23
:1047C000718D7F62728BABC8A46949556E8E978CD0
:1047D00084828281716872685B778C8F94874A5774
:1047E000ADBFAA8D6B4284AD8A6A6E7684B1956E38
:1047F0006275849D9A73666C6E788B846E6F726F2F
:104800007F89725381BBD0B3834D427E91796D8F86
:1048100097969F8A6B64767F8B9F9C825C5A72828C
:10482000827163648D9B815F526CB0D8AE746B7083
:104830007F918568678082929D9E89736C7C978347
:1048400068606D798891756267757674767396B7CE
:10485000B58F736A69868F86727D929B91786E6D33
:104860007A8D9885685B637A8479767E7E6F788CA2
:104870008367648AA3B2B5A17563808D8374797AE6
:10488000879797887274787C6F6F6D7484846C617D
:104890006F7B8283876E6E7C969F9D9482868A95BD
:1048A00085807977797D88888F8888765F62727F46
:1048B00084877765697885857C70707A7C88969125
:1048C000858C99988F887964718D94828484838291
:1048D0007F7868747682928771667980817D706B4B
:1048E0007B8F866B678299A8A9946A5D69788D949D
:1048F0008C7F8184868989776971879C8D736A6FC3
:10490000828F8C7668767B6F6685938C90908268B8
:10491000707A78818D89808690887972717B8FA07A
:104920009A866960799198927A63667E84797E71BD
:10493000738B9D8E6C5D5E6F859A917F77838B867E
:10494000877B7C829A9D897A708A898B7F696B7656
:10495000877E787477848A7F75726368808C8E878F
:10496000847575969E897080878DA19175678A97E9
:104970008984726363778F85707C837C7F85725BAB
:104980007684848C8D7E67788A9388868B7C8C97DE
:104990008B7F84807A7D7E747278747A7F7B818B42
:1049A00078727C80847D8384888980807E89897701
:1049B000778289877A6E7787838B876B6877858420
:1049C0007D808089988E7771717A78838F838277E2
:1049D00084857F807A7F78878D857D7B857F8781C1
:1049E0006E6A6F7E8B8681827D868B82837C787CEB
:1049F0007F7F7E877E7C817B7A7C7A78817D858AC9
:104A00008A9088867A7B7D7C867F7C7C817C7581A0
:104A10007278817C8277838B877C7D85858786779A
:104A20007A89817D7D888B8B817778797C7678799E
:104A30007A878E817C7A807C778782707783858B7A
:104A4000878878727C7E888386848294918178704E
:104A5000777F848377757781877D7B74797E858D79
:104A600079787B858882857A727A8C8D847D797E4F
:104A70008F968B7D70717984887E777A848A85821F
:104A80007A73787980807A7B81847E81857877815A
:104A90008686868C847F85827D7881887D7E7E78FF
:104AA0007B8287807D80777A7C757C81818484831A
:104AB0007E7E7F7A8183828386857F7F7E838080EE
:104AC0007F7B808183827F7D74747F8286827A7A05
:104AD0007A8285838382847F80827C7A7C828181D2
:104AE000817E818188867D78757F7F84847F817CCB
:104AF0007D77798183858283807C7E8180807B79CC
:104B00007A8087858380838380828279797D807FA4
:104B10007F817C7E80817F7F80838480827F7F8095
:104B2000807F808181838581777B7A787B80817AA1
:104B30007C82837E7B7C81878D8E847D7F8181805A
:104B4000818077777D7D7D817E797C7F7B79808296
:104B50008285888581848484807E7F7C7B8085813A
:104B60007D7C79787B82837F7D81817D7F7F7B7D6A
:104B700084868683817E80868583817E7E7C797B28
:104B800079777B7F808082827F8282807F82868528
:104B9000827E7F8384827A75777E83808081828023
:104BA000807D777C82848383858380807C7B7C7F0F
:104BB0007E7B7A7F858886817D7A7C8082828284F2
:104BC000847F7E7E7E7E79787B818483827D7D80FA
:104BD000828481818080807F7F80817F807E7A7ADD
:104BE000787878798082828585827E7C7D818283D7
:104BF000828283848483807C7C7D7D7E7F828382AD
:104C00008380807E7B78757C8182807E7E7D7D7FC7
:104C10007E7F848685818285888A8B878283817E58
:104C20007B76767878797979736E7073777C808308
:104C300087898B8C8D8C8A8B8A8C8C8A8780807EEE
:104C40007C7974716E6D6E6C6D7176797979787B23
:104C500082878B8F9498989A989290928F8D898260
:104C60007A75716E6C6966615E5C5C61686F767D99
:104C7000858B91979AA0A5A7A8A6A4A19C958E869E
:104C80007B736B625B55525153575A5D6268707803
:104C9000838D98A3AAAEB0B0B0AEA9A39E978D8322
:104CA0007569605A5654514C4B4E535A636D747E1D
:104CB0008B959CA6AEB1B5B9B8B1AAA399918B83D7
:104CC0007A70665C554E484648505A6061666E7A06
:104CD00087939AA1A9B0AFAEAFADABABA6988F89C1
:104CE0007F71665C55514F4E4B495157595D6975FF
:104CF00081909A9EA3B0BABDBDBCB7B0A5998C8176
:104D00007B776E5D524C4540424349525A5C647613
:104D10008A9CA3A3A7B2BCC0C2BFB3B1B0A18A7C16
:104D200070615D5C4F454B4D453F42485464727A1B
:104D30008092A2AAAEB5BFC3C9CCBFAEA6A09184D3
:104D40007E6C574C4845464B453739475A69707118
:104D5000708099ADB4B6BFCCD6D4C9B5A6A7A3937D
:104D60007962544C4F4E413129272B395365738258
:104D70008893A2BDCED1D1C8B7B0AFADB0B29F7D40
:104D80005D47404A524D413637323342608DB5CA95
:104D9000C5AD9A9FACAEA08B7A82A0B8BFB08B682D
:104DA00054515B5E5E5B565654483F4A71A6CCD563
:104DB000B9917882928A7D6D6C8EB9D4C7A0775CE8
:104DC0005B6A75716C6D6A60533D2F4076B1C5BBEF
:104DD0009A766D808D7C6D6371A0CCD7B894796A1A
:104DE000707E7D706B73776C55362F4E86B5B99F8C
:104DF0007B6A7D928F74656B8CB6CEC9A6897571FE
:104E000075766F696F7A7A71512D2F5899B9B1946F
:104E1000747A969C815B50618CBAC6C1AB998E83C3
:104E20007C6E656A767B7A6943242F68A7C3B48F4A
:104E3000767A8D8A6A4B4B6999B9BEB7ACA8A293B2
:104E40007D685F5F6D7B7765442C386AA6BEAC8D4C
:104E5000818B998F6749507099ADAFAEAFB1AA966B
:104E6000735C5555636E706248324173B0C8B3A02D
:104E700097A3A8926340445E83979BA6B3BBB59962
:104E8000745B515159676D6554475580B5C6B3A1E0
:104E90009EA6A48A57333A55788E96A8B7BFBCA170
:104EA0007C645F61656D6C615244506A99B2A9A6D9
:104EB000A8AEA58A5D404257758693ACBDC4C1A516
:104EC000856F6D6A615F5B564E43455379A2ACB501
:104ED000B5B2AC9A7D5E4F50616F809BAEB8BAA8F8
:104EE000958B887E6A615E5650443E475E869DAED5
:104EF000B3AFB4B1A4866A56525C687D8B92979C1E
:104F00009DA59E88756F766F66534A50586F7F8C4B
:104F1000989AA2A4A09487776B70737C8483828F05
:104F200095A199837A78838076635B626A787B78CF
:104F30007D808687837F7B78787C7E828B8C8C9744
:104F4000989D9B948F87847E74696367717A766C71
:104F50006D71787D77716C717B8086888A8C919871
:104F60009C9D9D9B958F88817874707479797771F9
:104F7000707074736A6260626970787D848A9199D6
:104F8000A1A7A9A8A5A0988E827A7574737475706C
:104F90006C6A6B6C6B6A6A69696E71767F858C96D8
:104FA0009FA3A5A2A19F9790857D78767677766F4F
:104FB0006C6A6E7273726F6B686B6F74797E838EBE
:104FC0009AA1A7A4A19E9792887F777473716E6B44
:104FD0006B6E737A7C7C7D78747171757A7D818457
:104FE0008E979E9F9B9995928D857D75706B696755
:104FF00066686B72797D8282817F7C7C7E81858808
:105000008C9194969595928C8883827D78726E6E41
:105010006C6B6A6C7175797B797A7B7B7F838A9004
:105020009494908E909495918A848587847F7770EC
:105030006C6D706F6F6F6E6E6F6E6E6F767E868F3B
:1050400093949394959595928C85838586857E76A9
:10505000737478787572717273706E6D70757B8110
:1050600085898C8E8E8E8D8A8887868888878581B3
:105070007F7D7D7D7E7F81817D78716D6D707375A3
:10508000787B7F83858481808184878988878989EB
:1050900088837D7A7A7D838685827D787777777835
:1050A0007B81878B8A847B7675797F82827E7D7C0B
:1050B0007B7975747880888B8885827F7E7D7D8002
:1050C000858B9194928B827B78797E807F7C7A77B6
:1050D000736F6C6B70787F8180808080807E7C7F36
:1050E000878F9494928F8A85838283858686837F37
:1050F0007A746F6C6E727676737171737574737681
:105100007F889092908F8E8C8A87888C9193918CD7
:10511000857F7A7878787A7874716E6C6A6A6A6E4C
:10512000767E848888898885848283878E9293910D
:105130008D888584848281807E7C7B787571707196
:1051400072757A7E81827F797676797E8183838497
:10515000838281818386898A8A8A8A8784807D7B0B
:10516000797A7D808384817A77777A7D7F7E7C7B74
:105170007D7D7A7878797B7D8083888C8D8A858324
:10518000828182858687888684838584817F7D7BF2
:10519000797876737274716C6D70737A807F7C7CB1
:1051A0007D7F878D909294949596938F8C8B888633
:1051B000837C7774736F6A6662636970767A7C7BCE
:1051C0007A7B7F84888C8E90949799979696959306
:1051D0008F88807B77716B645F60656B70737576A9
:1051E000797D818487888887868586888A8D8E9058
:1051F0008D89878584817D77717074777B7D7F80D1
:105200008181807E808586847F79747173737274E6
:1052100077797E858A8D90908E8F919090909191E4
:105220008E88807976757471716F6C6964605D6069
:10523000676D747C848A8E909092979DA3A7A9A68F
:10524000A0958A827D7A787572706E6C66605D5BFF
:105250005D6063697074777A7D838C98A0A6ACAD2D
:10526000ABA49B928C8A8A8986827C77726C6866F2
:105270006463626262626365686C737B838C97A10E
:10528000A5A6A4A09A9794908E9093918B81766E08
:105290006A6B6B6A6C67625E5B5A5C636B76838C6D
:1052A000919395969A9FA1A2A2A29F9B968C827998
:1052B000746F7071706D6A67615B59595F68747B58
:1052C0007E8184898E959A9EA3A7A8A49E948A83A2
:1052D0007E7A7776747473716E6A686665676B70D0
:1052E0007376777980858B90959B9FA4A29D968FEE
:1052F00088817E7C7B7B7975706E6C6D6E70717051
:105300006E6C6C6E727579818890979C9E9B9D9D4A
:105310009C9A948C85817F79746D6866696B6D70D9
:10532000706C676665687079818790969AA0A3A46F
:10533000A5A6A4A09A938B7F78716B69686867694A
:105340006A696A67636160656C757C80858E97A108
:10535000A8A9A6A3A5A5A29E93887E7A76706F6D54
:105360006A68666361625F5C5C5F656F7980858E89
:10537000969AA2AAACACADADA9A5A29A9289817762
:105380006E6B665F5B5854535352504D505B6D7F4C
:105390008F979AA1AAB0B4B4B0AAA49F9A969390FA
:1053A000887D756B615C595251545757585550550B
:1053B000647A91A7BAC0C0BBAFA095908B8B8E8F3B
:1053C0008D8987827A70665B545456595C6063603D
:1053D0005C5C687B97B0BFC6C0B5A7958984868999
:1053E0008F959592897E7368615E5B5754525255D2
:1053F0005A5F5F5D63768FA9BEC4BEAE9C8D82800E
:105400008897A2A8A79B8B7C74716D69635C5453C9
:105410005A5E62625C56576A89A9C0C9BFA7917E6D
:1054200072768495A4AAA3978D87837C715F514D72
:10543000515C6873746E5E4A4A618AB2CDCFB99E80
:10544000826C65718897A0A19E9E9F9E947C604C03
:1054500045475468757A79694E3E50779CC2D4C0EE
:10546000A1887267778C969FA19D9DA0A095816869
:10547000544C505B65747A7268533F486F9AC1DA36
:10548000CDA7856D626981929B9F9E9E999287733D
:105490005E4E4B535D6C7B807D73634F4D668DB468
:1054A000CDD6BC927A686372889499A1A39A9086AB
:1054B000715D524A4D5C6B7A83817B716257607B70
:1054C0009DBCC8BCA3856F6A6C7C929EA19F9A8D7F
:1054D0007F7361524C4F5B68788486827B6B60631C
:1054E000738EA8B7BCB29B887E7279898E949A9588
:1054F0008D86786558525056636F7D8A88827567AD
:10550000686F8195A1A8A39C948A88848487878BDF
:105510008B8A877D70645D5B5C616C78848E8B7F29
:105520007977777C878C8D95918A898B8E8E9390F5
:105530008A88827D7A72706B656B6B6D757C8286F2
:1055400086807878787C8484858888888D8F8B8D18
:105550008E8783827F7B7D7F74717572707277789E
:10556000818B8A827D7D79787E7F7C818987878C1B
:105570008E8A8989837C7D7E7C7A7F7F787874733C
:10558000767B89868383797A7D7F807C7E7D81842A
:105590008792928E8A827A787C797780867E7D79EE
:1055A000716F787F7A858782868384807A7B75792C
:1055B00081848A8C8F8E8C877E777372777F8181CE
:1055C000807B7977797E7E838A85868A867F7979E2
:1055D00076778086858A8F888080807981837E82B5
:1055E0007F7B7876787A79787E81848F8D86807CCF
:1055F0007775797C8387908C80817C7A7B7F7E83B2
:105600008A83817A76787779797D7A7E817E8987B7
:1056100088857E80787C80838382897C80887F7E79
:1056200084857C7E7E73748080787E837A7B847AA6
:105630007180847E838A85808880767C8286808B58
:105640008E8289827D767F8076817F7E7A7778737D
:105650007D7C7A817F868385838082797D7D838945
:105660008C8A8687807E787679808987848179772D
:1056700078777A7C7C7C7E7F81847D7B7C7B7B7F62
:1056800080828A8C888986817D7C7F838A8A8482D5
:1056900082828174757378797A7A707B7C7A767B72
:1056A0007D7D85878B8A908B848884898887858592
:1056B0008887827B746F72737773767778787B775D
:1056C000777A7A83838D8D8A898583838588898D8E
:1056D000938E85857B77767276727D7A7E74787507
:1056E0007674758276887E898387877C7F798482C9
:1056F00090898E8C8786817F7B78797E7D857A7B89
:1057000076797B777B7A857F88837F817C7A737CCF
:105710007A7F8A8787898C857F7B7B7E7F837F8268
:105720007F807D7B75787E7D89848B8585807A7B83
:10573000787B7B7E86848C8587827D7C75827A826D
:105740007B83827B7B7A747B7D8785888A878B7855
:105750008676827980807D8C838A81837B7579745B
:105760007B7B81827C7B75797D7E7F818B84878743
:1057700084868387818179807F8381867D80787824
:1057800076717D767F748475817E8083828A848839
:105790007B89858B868780807E76837F86798478F7
:1057A000797A7179707D717D767C807E868587843B
:1057B0008588858789888B7B8577817E82848188AF
:1057C0007C81747578757C7A7C7E7D837A857A7F1E
:1057D0007C77837B8A838E8A8486768679848288A6
:1057E000877E82797C797C7D7C7E817B84778374E3
:1057F0007E74767E788A7F92858B817D807B837FA5
:105800008A868384807F7C7C7A7C7F7F7F807C809B
:10581000797C7778797F85858E89888081797D7B91
:10582000857E8584847D7A7E787B74817E807D858B
:105830007E7F7D7E7A7B85848D858F818479797C5E
:1058400077827B8B7E877D7C79737C767F79858080
:10585000877F817F7F7A7E83828D888F82897C7E1D
:1058600075787F7C8580867E7D777877777A7A7C7D
:105870008083838580827E81808588878B858B7FEE
:105880007F7D7E7E7E807E7E7D7B7978787C777C56
:10589000768080807F83837E858384878A888581E4
:1058A000827B7E7C837E84837C7C797C787C7A7A24
:1058B000777B7E7D7E858380807D7F8089858985DD
:1058C00085827A7F7A827F857E82807C7D7D7C79ED
:1058D0007D777B78827D8680877F7D807D837E89D2
:1058E00080857F817C7E818281808180817B827CBA
:1058F000807B7E79797F7D857F8580817C7D7F80BF
:1059000085838382827E817F827D817E807F7E7F90
:105910007C817B7C787D7C7D8184848180817D7CA1
:105920008080807F828080817F827D807C7F817F7C
:105930008280827B7E7B7D7C7F84878282827E7D6B
:105940007D807B817D8380818180827C7E7A7E7E6A
:105950007E80817F80807F7A7F82818684877F843A
:10596000817D7E7D817E827E7F7F807E7C7C7D7E50
:105970007D8080807F817D7E7C7E80818383858029
:1059800081817E7D7F808080857E838383837F8508
:105990007D7F7C817F7D807A7D7A7C7B7F7D827F2D
:1059A00081817D8380847E858283857F847F7F7FE4
:1059B000807C7D7D7F7F7E807E7F7B807D80807E02
:1059C000847F838082827F817F827E80817F7F7FD0
:1059D0007F817E81827F838181807F7D7B7E7B7ED4
:1059E0007D7E807E7F7F7D7D7E7C7F808081817FCC
:1059F00080807E807E7F848281848587838786867F
:105A00008481837F7F7A7B7775737370727472750C
:105A10007678797D83848A9295969C9F9C999593BC
:105A20008B847E78746C6A62605F5B5E5C61656DBE
:105A3000757D818C999BA3A8AEAFB0ADAAA3958CC0
:105A4000827669625E5B51514F4E535557616B7060
:105A5000818B95A0A9AFB7B4B3B6B4ADA399908626
:105A6000736A5F56514F4C4C494D54535B666A7C88
:105A70008B91A0AEB9BBC1BEBEB8B0AB9F948B7CBE
:105A80006F67564F4C494646474D4D515D636E8496
:105A90008E97A8B2B9C1BFBFBEB7AEA0988E8372B1
:105AA0006E635554504B49494A52515960687C883D
:105AB0008E9EABB0B6BAB8B9B4AFA89A8D83776EE4
:105AC000695C5D5D5653524E525559646975838DBC
:105AD00095A1A7ACB6B1B1B1ACA79B91877A6D681F
